:020000040800F2
:2000000078060020890100089101000893010008950100089701000899010008000000009A
:200020000000000000000000000000009B0100089D010008000000009F010008A10600081F
:20004000A3010008A3010008A3010008A3010008A3010008A3010008A3010008A301000840
:20006000A3010008A3010008A3010008A3010008A3010008A3010008A3010008A301000820
:20008000A3010008A3010008A3010008A3010008A3010008A3010008A3010008A301000800
:2000A000A3010008A3010008A3010008A3010008A3010008A3010008A3010008A3010008E0
:2000C000A3010008A3010008A3010008A3010008A3010008A3010008A3010008A3010008C0
:2000E000A3010008A3010008A301000800F002F800F03AF80AA090E8000C82448344AAF19A
:200100000107DA4501D100F02FF8AFF2090EBAE80F0013F0010F18BFFB1A43F001031847D1
:20012000FC0600001C070000103A24BF78C878C1FAD8520724BF30C830C144BF04680C6022
:20014000704700000023002400250026103A28BF78C1FBD8520728BF30C148BF0B607047BF
:200160001FB51FBD10B510BD00F031F81146FFF7F7FF00F023FB00F04FF803B4FFF7F2FFFE
:2001800003BC00F057F800000948804709480047FEE7FEE7FEE7FEE7FEE7FEE7FEE7FEE789
:2001A000FEE7FEE704480549054A064B704700005D070008ED0000087800002078060020ED
:2001C0007802002078020020704770477047754600F02CF8AE4605006946534620F007009F
:2001E000854618B020B5FFF7DDFFBDE820404FF000064FF000074FF000084FF0000B21F093
:200200000701AC46ACE8C009ACE8C009ACE8C009ACE8C0098D46704710B50446AFF30080B5
:200220002046BDE81040FFF7A8BF0000004870471800002001491820ABBEFEE726000200D7
:200240007047000070B500F037FA14480068144AB0FBF2F1B1F1807F00D31DE021F07F40B0
:20026000401E4FF0E022506150170F22002807DA13071D0E0B4B00F00F04241F1D5503E057
:2002800013071C0E084B1C5400BF00204FF0E02290610720106100BF70BD0000040000209E
:2002A00040420F0018ED00E000E400E000B5024603E04FF47A7000F005F8101EA2F1010246
:2002C000F7D100BD0349086000BF024909680029FBD17047000000202DE9F04102460025EA
:2002E0000026002000230024002791F803C00CF00F0591F803C00CF0100CBCF1000F03D0FB
:2003000091F802C04CEA050591F800C0BCF1000F31D0146800202BE04FF0010C0CFA00F360
:20032000B1F800C00CEA03069E4220D183004FF00F0C0CFA03F7BC4305FA03FC4CEA04046C
:2003400091F803C0BCF1280F06D14FF0010C0CFA00FCC2F814C00AE091F803C0BCF1480F80
:2003600005D14FF0010C0CFA00FCC2F810C0401C0828D1D31460B1F800C0BCF1FF0F34DDF6
:20038000546800202EE000F1080C4FF0010808FA0CF3B1F800C00CEA03069E4221D1830068
:2003A0004FF00F0C0CFA03F7BC4305FA03FC4CEA040491F803C0BCF1280F05D100F1080C9D
:2003C00008FA0CF8C2F8148091F803C0BCF1480F07D100F1080C4FF0010808FA0CF8C2F894
:2003E0001080401C0828CED35460BDE8F081000008B50121142000F0CFF800224FF43061B6
:200400000F4800F025F800224FF460410D4800F01FF810208DF803004FF47060ADF80000A6
:2004200001208DF8020069460548FFF755FF4FF46040ADF8000069460248FFF74DFF08BD46
:20044000000801400010014041617047016170470AB1016100E041617047000010B54FF432
:2004600000410748FFF7F2FF0120FFF71FFF4FF400410348FFF7E8FF0120FFF717FF10BD2A
:200480000010014070B506460C461CB906F18000C5B204E0012C02D106F1C000C5B2284605
:2004A00000F06CF870BD000010B5FFF7A1FF002000F042F800224FF400510F48FFF7C8FF4C
:2004C000032000F039F8FFF7C9FFFFF7C7FFFFF7C5FF022000F030F8FFF7C0FF282000F07D
:2004E0004DF80C2000F04AF8062000F047F8012000F044F810BD00000010014010B504468A
:200500004FF400510548FFF7A1FF204600F036F84FF400510148FFF797FF10BD0010014059
:2005200010B5044603E02078FFF7E8FF641C20780028F8D110BD000010B5044604F0010278
:200540004FF480710C48FFF783FFC4F340024FF400710948FFF77CFFC4F380024FF48061CF
:200560000548FFF775FFC4F3C0024FF400610248FFF76EFF10BD00000008014010B50446D5
:200580002011FFF7D9FFFFF769FF2046FFF7D4FFFFF764FF10BD000029B1064A926902433F
:2005A000044B9A6104E0034A92698243014B9A61704700000010024010B500F001F810BD35
:2005C0000CB50020019000903348006840F480303149086000BF3048006800F4003000901D
:2005E0000198401C0190009818B90198B0F5A06FF1D12948006800F4003010B1012000908E
:2006000001E0002000900098012843D12348006840F01000214908600846006820F00300C6
:2006200008600846006840F0020008601A484068194948600846406848600846406840F426
:20064000806048600846406820F47C1048600846406840F4E81048600846006840F0807034
:20066000086000BF0C48006800F000700028F9D00948406820F0030007494860084640684C
:2006800040F00200486000BF0348406800F00C000828F9D10CBD000000100240002002405B
:2006A0000448006820B103480068401E01490860704700000000002010B5002100200022F3
:2006C000214B5B6803F00C0121B1042906D0082928D107E01D4B1E4C236027E01B4B1C4CDB
:2006E000236023E0184B5B6803F47010164B5B6803F48032022303EB904022B9154B434366
:20070000134C23600DE0104B5B6803F4003323B1104B43430E4C236003E00C4B43430C4C18
:20072000236003E0094B0A4C236000BF00BF064B5B68C3F30313084CE15C054B1B68CB4059
:20074000034C236010BD00000010024000127A000400002000093D000800002010B513486A
:20076000006840F001001149086008464068104908400E494860084600680E4908400B49DF
:2007800008600846006820F4802008600846406820F4FE0048604FF41F008860FFF70CFF24
:2007A0004FF000600449086010BD0000001002400000FFF8FFFFF6FE08ED00E0FFF742FDD3
:2007C000FFF772FE00210220FFF75CFE0FA0FFF7A7FE002406E01820FFF7D0FE1420FFF7A6
:2007E00065FD641C0E2CF6DB0EE08F20FFF7C6FE002506E01820FFF7C1FE1420FFF756FD40
:200800006D1C1B2DF6DB00BFEFE70000546F69205965752050544954000000003C08000875
:20082000000000201800000028010008540800081800002060060000440100080000000000
:2008400000A24A0400000000000000000102030406070809FFFFFFFFFFFFFFFFFFFFFFFF8C
:20086000FFFFFFFFFFFFFFFFFFFFFFFFFFFFFFFFFFFFFFFFFFFFFFFFFFFFFFFFFFFFFFFF98
:20088000FFFFFFFFFFFFFFFFFFFFFFFFFFFFFFFFFFFFFFFFFFFFFFFFFFFFFFFFFFFFFFFF78
:2008A000FFFFFFFFFFFFFFFFFFFFFFFFFFFFFFFFFFFFFFFFFFFFFFFFFFFFFFFFFFFFFFFF58
:2008C000FFFFFFFFFFFFFFFFFFFFFFFFFFFFFFFFFFFFFFFFFFFFFFFFFFFFFFFFFFFFFFFF38
:2008E000FFFFFFFFFFFFFFFFFFFFFFFFFFFFFFFFFFFFFFFFFFFFFFFFFFFFFFFFFFFFFFFF18
:20090000FFFFFFFFFFFFFFFFFFFFFFFFFFFFFFFFFFFFFFFFFFFFFFFFFFFFFFFFFFFFFFFFF7
:20092000FFFFFFFFFFFFFFFFFFFFFFFFFFFFFFFFFFFFFFFFFFFFFFFFFFFFFFFFFFFFFFFFD7
:20094000FFFFFFFFFFFFFFFFFFFFFFFFFFFFFFFFFFFFFFFFFFFFFFFFFFFFFFFFFFFFFFFFB7
:20096000FFFFFFFFFFFFFFFFFFFFFFFFFFFFFFFFFFFFFFFFFFFFFFFFFFFFFFFFFFFFFFFF97
:20098000FFFFFFFFFFFFFFFFFFFFFFFFFFFFFFFFFFFFFFFFFFFFFFFFFFFFFFFFFFFFFFFF77
:2009A000FFFFFFFFFFFFFFFFFFFFFFFFFFFFFFFFFFFFFFFFFFFFFFFFFFFFFFFFFFFFFFFF57
:2009C000FFFFFFFFFFFFFFFFFFFFFFFFFFFFFFFFFFFFFFFFFFFFFFFFFFFFFFFFFFFFFFFF37
:2009E000FFFFFFFFFFFFFFFFFFFFFFFFFFFFFFFFFFFFFFFFFFFFFFFFFFFFFFFFFFFFFFFF17
:200A0000FFFFFFFFFFFFFFFFFFFFFFFFFFFFFFFFFFFFFFFFFFFFFFFFFFFFFFFFFFFFFFFFF6
:200A2000FFFFFFFFFFFFFFFFFFFFFFFFFFFFFFFFFFFFFFFFFFFFFFFFFFFFFFFFFFFFFFFFD6
:200A4000FFFFFFFFFFFFFFFFFFFFFFFFFFFFFFFFFFFFFFFFFFFFFFFFFFFFFFFFFFFFFFFFB6
:200A6000FFFFFFFFFFFFFFFFFFFFFFFFFFFFFFFFFFFFFFFFFFFFFFFFFFFFFFFFFFFFFFFF96
:200A8000FFFFFFFFFFFFFFFFFFFFFFFFFFFFFFFFFFFFFFFFFFFFFFFFFFFFFFFFFFFFFFFF76
:200AA000FFFFFFFFFFFFFFFFFFFFFFFFFFFFFFFFFFFFFFFFFFFFFFFFFFFFFFFFFFFFFFFF56
:200AC000FFFFFFFFFFFFFFFFFFFFFFFFFFFFFFFFFFFFFFFFFFFFFFFFFFFFFFFFFFFFFFFF36
:200AE000FFFFFFFFFFFFFFFFFFFFFFFFFFFFFFFFFFFFFFFFFFFFFFFFFFFFFFFFFFFFFFFF16
:200B0000FFFFFFFFFFFFFFFFFFFFFFFFFFFFFFFFFFFFFFFFFFFFFFFFFFFFFFFFFFFFFFFFF5
:200B2000FFFFFFFFFFFFFFFFFFFFFFFFFFFFFFFFFFFFFFFFFFFFFFFFFFFFFFFFFFFFFFFFD5
:200B4000FFFFFFFFFFFFFFFFFFFFFFFFFFFFFFFFFFFFFFFFFFFFFFFFFFFFFFFFFFFFFFFFB5
:200B6000FFFFFFFFFFFFFFFFFFFFFFFFFFFFFFFFFFFFFFFFFFFFFFFFFFFFFFFFFFFFFFFF95
:200B8000FFFFFFFFFFFFFFFFFFFFFFFFFFFFFFFFFFFFFFFFFFFFFFFFFFFFFFFFFFFFFFFF75
:200BA000FFFFFFFFFFFFFFFFFFFFFFFFFFFFFFFFFFFFFFFFFFFFFFFFFFFFFFFFFFFFFFFF55
:200BC000FFFFFFFFFFFFFFFFFFFFFFFFFFFFFFFFFFFFFFFFFFFFFFFFFFFFFFFFFFFFFFFF35
:200BE000FFFFFFFFFFFFFFFFFFFFFFFFFFFFFFFFFFFFFFFFFFFFFFFFFFFFFFFFFFFFFFFF15
:200C0000012700F0805000905C480168C90513D40168834641F480710160FFF73DFC8246EA
:200C200006E000BFFFF738FCA0EB0A0064284ED8DBF80000C005F5D5E06801280AD008B138
:200C4000052813D0286A20F001002862286A20F0040002E0286A40F001002862E06841F207
:200C6000883B98B1FFF718FC82460BE0286A40F004002862EEE700BFFFF70EFCA0EB0A0131
:200C800059455AD8286A8007F6D50CE0FFF704FC824605E0FFF700FCA0EB0A0159454CD8C7
:200CA000286A8007F6D41FB1E86920F08050E861E06988B36968C1F38101022944D0022813
:200CC000C6F8608004D0FFF7E7FB044638E034E0FFF7E2FB074604E0FFF7DEFBC01B02287C
:200CE0002BD828688001F7D4206AB0F5803F05D16868A16820F4003008436860D4E908015B
:200D00000843696821F4741108436860C6F86090FFF7C2FB044606E025E000BFFFF7BCFB08
:200D2000001B022809D828688001F7D51BE000BFFFF7B2FB001B022802D90320BDE8F88FE4
:200D400028688001F4D40EE00128F7D06868226A00F48031914204D1616A00F4701088422A
:200D600001D00120EAE70020E8E700000010024000004242800442420C0000200070004007
:200D800010B5401EB0F1807F01D3012010BD4FF0E02460610F21601700F0A0F90020A06179
:200DA00007202061002010BDFEE701684A69D24352050FD46FF480624A61002140F8301FB6
:200DC000202242738173026942F00402026101730120704700207047F8B50446C06A1E467A
:200DE0000D461746082807D0012805D010F5803F02D0206B122804D12068016841F48071F7
:200E00000160134600224FF001112046009600F05DF840B120680068C00502D54FF4007034
:200E200020640320F8BD2069B0F5804F0ED00620216800EAD51040F0F000086133463A467B
:200E40000B49204600F08AF878B902E005F0FE0000E0E8B221680861054933463A46891F05
:200E6000204600F07BF80028DCD00120F8BD00000800010070B516460D4604461EE0204674
:200E8000FFF793FF08B1012070BD681C16D0FFF703FB801BA84200D885B920684069C04396
:200EA00040070BD5002044F8300F20216173A073216941F0200121612073E4E7206840695B
:200EC000C0434007DBD4002070BD00002DE9F047984617460D460446C1F30746DDF8209021
:200EE0002AE000BFB8F1FF3F26D0FFF7D5FAA0EB0901414502D8B8F1000F1DD12068012E35
:200F000016D0806925EA00000004000C12D00020B84211D1002044F8300F20216173A07342
:200F2000216941F02001216120730120BDE8F0874069E7E70120EBE72068012E0AD080699F
:200F400025EA00000004000C06D00020B842C9D00020EBE74069F3E70120F7E72DE9F04728
:200F6000984616460D4604464FF000094FF0200AC1F3074723E020684069C043400515D482
:200F80002068016841F40071016021686FF480604861C4F8309084F83DA084F83E90216C38
:200FA00041F00401216484F83C9021E0701C06D0FFF772FAA0EB0800B04203D816B1012F12
:200FC0001FD021E02068012F15D0806925EA00000004000C18D000BF44F8309F84F80DA0A1
:200FE00084F80E90216941F02001216184F80C900120BDE8F087406925EA00000004000C5C
:20100000EAD12068406901E02068806925EA00000004000CAFD1ECE770B516460D46044602
:201020001EE02046FFF7C1FE08B1012070BD681C16D0FFF731FA801BA84200D885B92068E2
:201040004069C04300060BD5002044F8300F20216173A073216941F0200121612073E4E77F
:2010600020684069C0430006DBD4002070BDFEE7FEE770477047FFF79DBB30B58FB0282147
:201080006846FFF7A1F814210AA8FFF79DF801210804CDE900100024029402250491CDE981
:2010A00007504FF4E01009906846FFF7D9FC08B172B6FEE70F20CDE90A054FF48060CDE901
:2010C0000C4002210AA80E94FFF7FEFB002801D072B6FEE70FB030BD7047FEE70907090EE9
:2010E000002804DB00F1E02080F80014704700F00F0000F1E02080F8141D704710B5802000
:2011000000F050F80024202000F06CF8641C462CF9DB10BD10B53220FFF7BCF8302000F04B
:2011200041F80520FFF7B6F8302000F03BF80120FFF7B0F8302000F035F80A20FFF7AAF84C
:20114000202000F02FF80A20FFF7A4F8282000F029F80120FFF79EF8082000F023F8012022
:20116000FFF798F8012000F01DF80120FFF792F80120FFF78FF8062000F014F80120FFF74B
:2011800089F8BDE810400C2000F00CB810B1012805D102E041F0800101E041F0C001C8B258
:2011A000AFF300801CB500F0F00141F00C028DF8042041F0080100018DF8051040F00C0161
:2011C0008DF8061040F008008DF8070064200090042301AA4E210248FFF728FA1CBD000020
:2011E000100000201CB500F0F00141F00D028DF8042041F0090100018DF8051040F00D0110
:201200008DF8061040F009008DF8070064200090042301AA4E210248FFF708FA1CBD0000FE
:201220001000002010B5044602E0641CFFF7DAFF20780028F9D110BD08B5FFF7C3FAFFF781
:201240001CFF2E48816941F020018161816901F020010091816941F004018161816901F075
:2012600004010091816941F0080181618069244900F00800009023484FF4804201602249B8
:20128000416000218160C0E9031241618161C1610162FFF707F908B172B6FEE7FFF73AFFF9
:2012A000FFF72CFF03210020FFF770FF17A0FFF7B9FF00244FF47A751820FFF773FF28469B
:2012C000FEF7E8FF641C032CF6DB00210846FFF75DFF00241C20FFF765FF2846FEF7DAFFFB
:2012E000641C062CF6DB00241820FFF75BFF2846FEF7D0FF641C062CF6DBE6E700100240EB
:201300000054004010000020A08601004E686F20456D203C3321000001020203040506071D
:2013200008090A0B0C0D0E0F10100000000000000000010203040607080900000000010206
:2013400003040000641300080000002010000000280100087413000810000020B806000029
:14136000440100080100000010000000000000000024F40003
:00000001FF
